:100000000C942A000C9447000C9447000C94470071
:100010000C9447000C9447000C9447000C94470044
:100020000C9447000C9447000C94991A0C944700C8
:100030000C9447000C947F1B0C9447000C944700D1
:100040000C94D9070C9447000C9447000C9447007B
:100050000C94470011241FBECFE5D8E0DEBFCDBF12
:1000600011E0A0E6B0E0E8E6FFE302C005900D92E3
:10007000A634B107D9F711E0A6E4B1E001C01D92A2
:10008000A339B107E1F70E94BA1B0C94B21F0C947C
:100090000000EF92FF920F931F937B018C0120E0F1
:1000A00030E040E05FE40E94F50388238CF0C80153
:1000B000B70120E030E040E05FE40E94C1010E940F
:1000C00055049B01AC01205030404040504806C0D0
:1000D000C801B7010E9455049B01AC01B901CA01D6
:1000E0001F910F91FF90EF900895A0E0B0E0EBE733
:1000F000F0E00C946B1FDC012B01FA019C91923013
:1001000008F439C1EB018881823008F433C194309E
:1001100069F4843009F02FC111969C91119789815F
:10012000981709F428C1AEE1B1E025C1843009F483
:1001300021C18230A9F4923009F01DC19A01AD01AC
:1001400088E0EA010990AE01E90109929E0181501F
:10015000C1F7E201898111969C918923818308C1AD
:10016000923009F407C112962D903C901397EB0141
:100170008A819B811496AD90BD90CD90DC901797AD
:10018000EC80FD800E811F819101281B390BB90184
:1001900037FF04C066277727621B730B6032710537
:1001A0000CF061C0121613066CF537014801062EDB
:1001B00004C096948794779467940A94D2F721E0C8
:1001C00030E040E050E004C0220F331F441F551FB1
:1001D0006A95D2F721503040404050402E213F21B7
:1001E00040235123211531054105510521F021E01E
:1001F00030E040E050E079018A01E628F72808293C
:1002000019293CC0232BD1F1260E371E350146019A
:10021000062E04C096948794779467940A94D2F734
:1002200021E030E040E050E004C0220F331F441FC3
:10023000551F6A95D2F721503040404050402A2146
:100240003B214C215D21211531054105510521F04E
:1002500021E030E040E050E059016A01A628B728CB
:10026000C828D9280BC0821593052CF01C01AA249C
:10027000BB24650103C0EE24FF24870111969C91E5
:10028000D20111968C91981709F445C0992339F041
:10029000A80197012A193B094C095D0906C0A6016E
:1002A00095012E193F09400B510B57FD08C01182D3
:1002B0003382228224833583468357831DC081E0A5
:1002C00081833382228288279927DC01821B930B4A
:1002D000A40BB50B84839583A683B7830DC0220F2F
:1002E000331F441F551F24833583468357838281E0
:1002F000938101979383828324813581468157813D
:10030000DA01C9010197A109B1098F5F9F4FAF4F72
:10031000BF4328F30BC0918333822282EA0CFB1C7B
:100320000C1D1D1DE482F5820683178383E0808304
:10033000248135814681578157FF1AC0C901AA27F8
:1003400097FDA095BA2F81709070A070B0705695EF
:10035000479537952795822B932BA42BB52B848318
:100360009583A683B7838281938101969383828349
:10037000DF0101C0D201CD01CDB7DEB7E2E10C94BF
:10038000871FA0E2B0E0E7ECF1E00C94771F6983EF
:100390007A838B839C832D833E834F835887E9E048
:1003A000EE2EF12CEC0EFD1ECE010196B7010E943F
:1003B0007E058E010F5E1F4FCE010596B8010E948B
:1003C0007E058A8991E089278A8BC701B801AE0131
:1003D000475E5F4F0E9475000E94A904A096E6E068
:1003E0000C94931FA0E2B0E0E8EFF1E00C94771FCB
:1003F00069837A838B839C832D833E834F835887C5
:10040000F9E0EF2EF12CEC0EFD1ECE010196B701A6
:100410000E947E058E010F5E1F4FCE010596B8012A
:100420000E947E05C701B801AE01475E5F4F0E9482
:1004300075000E94A904A096E6E00C94931FA0E228
:10044000B0E0E5E2F2E00C946B1F69837A838B8362
:100450009C832D833E834F835887CE010196BE0136
:10046000675F7F4F0E947E05CE010596BE016F5EDD
:100470007F4F0E947E059985923088F0898982306D
:10048000C8F0943019F4823051F404C0843029F457
:10049000923081F48EE191E0C6C0923049F420E0C0
:1004A0009A858A89981321E02A87CE010996BBC0D4
:1004B000823049F420E09A858A89981321E02A8BBA
:1004C000CE014196B0C02D843E844F8458886D88FB
:1004D0007E888F88988CEE24FF248701AA24BB2471
:1004E000650140E050E060E070E0E0E0F0E0C10174
:1004F00081709070892BE9F0E60CF71C081D191D1E
:100500009A01AB012A0D3B1D4C1D5D1D80E090E062
:10051000A0E0B0E0E614F7040805190520F481E036
:1005200090E0A0E0B0E0BA01A901480F591F6A1F8E
:100530007B1FAA0CBB1CCC1CDD1C97FE08C081E0F5
:1005400090E0A0E0B0E0A82AB92ACA2ADB2A3196B6
:10055000E032F10549F0660C771C881C991C569412
:10056000479437942794C3CFFA85EA892B893C892D
:100570008B859C85280F391F2E5F3F4F17C0CA01FE
:1005800081709070892B61F016950795F794E79428
:1005900080E090E0A0E0B0E8E82AF92A0A2B1B2BC3
:1005A00076956795579547952F5F3F4F77FDE7CF36
:1005B0000CC0440F551F661F771F17FD4160EE0CDE
:1005C000FF1C001F111F21503040403090E05907A0
:1005D00090E0690790E4790760F32B8F3C8FDB0193
:1005E000CA018F779070A070B07080349105A1051A
:1005F000B10561F447FD0AC0E114F10401051105DC
:1006000029F0405C5F4F6F4F7F4F40781A8EFE1786
:1006100011F081E08A8F4D8F5E8F6F8F78A383E01A
:10062000898FCE0149960E94A904A096E2E10C941C
:10063000871FA8E1B0E0EFE1F3E00C94731F69833A
:100640007A838B839C832D833E834F835887B9E0C5
:10065000EB2EF12CEC0EFD1ECE010196B7010E948F
:100660007E058E010F5E1F4FCE010596B8010E94D8
:100670007E052985223008F47EC03989323010F495
:10068000B8017CC08A859A8989278A87243011F02D
:10069000223031F4231709F06EC06EE171E06EC0B4
:1006A000343039F41D861E861F86188A1C861B86E8
:1006B00004C0323021F484E08987B7015FC02B8504
:1006C0003C858B899C89281B390B3C872B87ED84C3
:1006D000FE840F851889AD88BE88CF88D88CEA142F
:1006E000FB040C051D0540F4EE0CFF1C001F111F40
:1006F000215030403C872B8720E030E040E050E044
:1007000080E090E0A0E0B0E460E070E0EA14FB0478
:100710000C051D0540F0282B392B4A2B5B2BEA18C2
:10072000FB080C091D09B695A79597958795EE0CC2
:10073000FF1C001F111F6F5F7F4F6F31710531F775
:10074000DA01C9018F779070A070B0708034910584
:10075000A105B10561F427FD0AC0E114F10401050A
:10076000110529F0205C3F4F4F4F5F4F20782D87B8
:100770003E874F87588BBE01675F7F4FCB010E943A
:10078000A9046896EAE00C948F1FA8E1B0E0EBECB6
:10079000F3E00C94771F69837A838B839C832D838A
:1007A0003E834F83588789E0E82EF12CEC0EFD1E26
:1007B000CE010196B7010E947E058E010F5E1F4F8C
:1007C000CE010596B8010E947E058985823040F0F1
:1007D0008989823028F0C701B8010E94F60501C05E
:1007E0008FEF6896E6E00C94931FA8E1B0E0EBEF82
:1007F000F3E00C94771F69837A838B839C832D832A
:100800003E834F83588789E0E82EF12CEC0EFD1EC5
:10081000CE010196B7010E947E058E010F5E1F4F2B
:10082000CE010596B8010E947E058985823040F090
:100830008989823028F0C701B8010E94F60501C0FD
:100840008FEF6896E6E00C94931FA8E1B0E0EBE22E
:10085000F4E00C94771F69837A838B839C832D83C8
:100860003E834F83588789E0E82EF12CEC0EFD1E65
:10087000CE010196B7010E947E058E010F5E1F4FCB
:10088000CE010596B8010E947E058985823040F030
:100890008989823028F0C701B8010E94F60501C09D
:1008A00081E06896E6E00C94931FACE0B0E0EBE5E5
:1008B000F4E00C947B1F69837A838B839C83CE0145
:1008C0000196BE016B5F7F4F0E947E058D81823055
:1008D00061F1823050F1843021F48E81882351F10E
:1008E0002EC02F81388537FD20C06E812F31310514
:1008F0001CF06623F9F023C08EE190E0821B930B7D
:1009000029853A854B855C8504C056954795379572
:1009100027958A95D2F76623B1F05095409530958A
:1009200021953F4F4F4F5F4F0EC020E030E040E039
:1009300050E009C02FEF3FEF4FEF5FE704C020E02A
:1009400030E040E050E8B901CA012C96E2E00C9496
:10095000971FDF92EF92FF920F931F93FC01E480A9
:10096000F58006811781D1808081823048F480E053
:1009700090E0A0E1B0E0E82AF92A0A2B1B2BA5C0E1
:10098000843009F49FC0823021F4EE24FF248701D3
:1009900005C0E114F1040105110519F4E0E0F0E0EF
:1009A00096C0628173819FEF623879070CF05BC05B
:1009B00022E83FEF261B370B2A3131052CF020E0CF
:1009C00030E040E050E02AC0B801A701022E04C088
:1009D00076956795579547950A94D2F781E090E010
:1009E000A0E0B0E004C0880F991FAA1FBB1F2A9582
:1009F000D2F70197A109B1098E219F21A023B1232C
:100A00000097A105B10521F081E090E0A0E0B0E001
:100A10009A01AB01282B392B4A2B5B2BDA01C90138
:100A20008F779070A070B07080349105A105B105EA
:100A300039F427FF09C0205C3F4F4F4F5F4F04C080
:100A4000215C3F4F4F4F5F4FE0E0F0E02030A0E0EF
:100A50003A07A0E04A07A0E45A0710F0E1E0F0E00E
:100A600079018A0127C06038710564F5FB01E158FE
:100A7000FF4FD801C7018F779070A070B07080349D
:100A80009105A105B10539F4E7FE0DC080E490E0C1
:100A9000A0E0B0E004C08FE390E0A0E0B0E0E80E9A
:100AA000F91E0A1F1B1F17FF05C016950795F7941F
:100AB000E794319687E016950795F794E7948A9521
:100AC000D1F705C0EE24FF248701EFEFF0E06E2F91
:100AD000679566276795902F9F77D794DD24D794E5
:100AE0008E2F8695492F462B582F5D29B701CA01B5
:100AF0001F910F91FF90EF90DF900895FC01DB01B3
:100B0000408151812281622F6F7770E0221F22275E
:100B1000221F9381892F880F822B282F30E0991F65
:100B20009927991F11969C93119721153105A9F5C5
:100B3000411551056105710511F482E037C082E865
:100B40009FEF13969C938E9312979A01AB0167E0E7
:100B5000220F331F441F551F6A95D1F783E08C93F2
:100B60000DC0220F331F441F551F12968D919C916B
:100B70001397019713969C938E931297203080E0E1
:100B8000380780E0480780E4580758F314962D93FF
:100B90003D934D935C93179708952F3F310579F45A
:100BA000411551056105710519F484E08C93089590
:100BB00064FF03C081E08C9312C01C9210C02F57B9
:100BC000304013963C932E93129783E08C9387E0EA
:100BD000440F551F661F771F8A95D1F770641496CE
:100BE0004D935D936D937C93179708951F93DC014C
:100BF000FB019C91923008F447C08081823008F458
:100C000043C0943051F411961C91843099F5818140
:100C1000682F70E0611B71093FC0843021F0923071
:100C200031F48230B9F18181882389F12DC0119688
:100C30001C9111978230F1F081811817D9F4129626
:100C40002D913C911397828193818217930794F0A1
:100C500028173907BCF014968D919D910D90BC9189
:100C6000A02D2481358146815781281739074A07ED
:100C70005B0718F4112341F00AC082179307A407F9
:100C8000B50740F4112319F061E070E005C06FEF83
:100C90007FEF02C060E070E0CB011F910895DF9309
:100CA000CF93CDB7DEB7A7E2B0E0E7E2F0E0808116
:100CB0008F778C93A7E2B0E0E7E2F0E08081806478
:100CC0008C93A7E2B0E0E7E2F0E080818F7D8C9327
:100CD000A6E2B0E0E6E2F0E080818F7D8C93A6E2B0
:100CE000B0E0E6E2F0E0808184608C93A6E2B0E0C0
:100CF000E6E2F0E0808182608C93A6E2B0E0E6E27A
:100D0000F0E080818E7F8C93A6E2B0E0E6E2F0E036
:100D1000808180688C93CF91DF910895DF93CF938A
:100D2000CDB7DEB728970FB6F894DEBF0FBECDBFA4
:100D30008E8378876F8381E08D8319821A821B826C
:100D40001C8280914A01882309F067C08E8180321D
:100D500008F061C08F819885009709F45CC081E03C
:100D600080934A01A7E2B0E0E7E2F0E08081807E74
:100D70008C93A7E2B0E0E7E2F0E090818E81892BCE
:100D80008C93A6E2B0E0E6E2F0E0808180648C9390
:100D90000BC089819A81AB81BC810196A11DB11DD7
:100DA00089839A83AB83BC83E6E2F0E080818295FD
:100DB0008F70882F90E081709070009761F4898126
:100DC0009A81AB81BC81803325E7920720E0A2079E
:100DD00020E0B207F1F689819A81AB81BC81803332
:100DE00025E7920720E0A20720E0B20711F41D8258
:100DF00015C0A6E2B0E0E6E2F0E0808180618C936D
:100E0000E4E2F0E080819181EF81F8859183808335
:100E100010924A0103C01D8201C01D828D81289657
:100E20000FB6F894DEBF0FBECDBFCF91DF9108950E
:100E3000DF93CF9300D000D000D0CDB7DEB78A8348
:100E40007C836B835E834D8381E0898380914A013B
:100E50008823C9F58B819C81009721F08D819E812B
:100E6000009711F4198230C081E080934A011092FA
:100E700051018B819C8190934701809346018D8124
:100E80009E819093490180934801A7E2B0E0E7E298
:100E9000F0E08081807E8C93A7E2B0E0E7E2F0E0B2
:100EA00090818A81892B8C93A6E2B0E0E6E2F0E0A3
:100EB000808180648C93A6E2B0E0E6E2F0E080817D
:100EC00088608C9301C01982898126960FB6F894A8
:100ED000DEBF0FBECDBFCF91DF910895DF93CF93DB
:100EE00000D00F92CDB7DEB79B838A8381E08983E0
:100EF0008A819B81009711F4198254C080914A0124
:100F0000882309F04EC081E080934A0181E08093FC
:100F10005101EA81FB818081918190934C01809302
:100F20004B01EA81FB818281938190934E018093F2
:100F30004D01EA81FB81848180935001EA81FB812C
:100F400085819681909349018093480110924F01C9
:100F5000A7E2B0E0E7E2F0E08081807E8C93A7E238
:100F6000B0E0E7E2F0E0408120914B0130914C018C
:100F700080914F01882F90E0F901E80FF91F8081DF
:100F8000842B8C93A6E2B0E0E6E2F0E080818064FE
:100F90008C93A6E2B0E0E6E2F0E0808188608C937A
:100FA00001C0198289810F900F900F90CF91DF912E
:100FB00008951F920F920FB60F9211242F933F9313
:100FC0004F935F936F937F938F939F93AF93BF9351
:100FD000EF93FF93DF93CF93CDB7DEB780915101AD
:100FE0008823C9F4A0914601B0914701E4E2F0E002
:100FF000808191818D939C9310924A01E0914801E8
:10100000F09149010995A6E2B0E0E6E2F0E08081C6
:10101000877F8C9354C080915101813009F04FC07B
:1010200020914D0130914E0180914F01882F90E029
:10103000880F991FD901A80FB91FE4E2F0E0808161
:10104000918111969C938E9380914F018F5F809335
:101050004F0190914F0180915001981779F41092AF
:101060004A01E0914801F09149010995A6E2B0E0FA
:10107000E6E2F0E08081877F8C9321C0A7E2B0E0B8
:10108000E7E2F0E08081807E8C93A7E2B0E0E7E2C7
:10109000F0E0408120914B0130914C0180914F0153
:1010A000882F90E0F901E80FF91F8081842B8C9341
:1010B000A6E2B0E0E6E2F0E0808180648C93CF911C
:1010C000DF91FF91EF91BF91AF919F918F917F91B0
:1010D0006F915F914F913F912F910F900FBE0F90A5
:1010E0001F901895DF93CF93CDB7DEB72E970FB62D
:1010F000F894DEBF0FBECDBF8A836B834C8381E043
:1011000089838A81843008F06AC18B81883008F035
:1011100066C18A81282F30E03E872D878D859E8588
:101120008130910509F468C02D853E852230310556
:101130002CF48D859E85009771F052C12D853E85DA
:101140002230310509F4A9C08D859E858330910533
:1011500009F4F4C045C18C81282F30E03C872B87EF
:101160008B859C858130910589F12B853C852230CA
:10117000310529F08B859C85009799F03BC0ABE346
:10118000B0E0EBE3F0E08081482F8B81282F30E046
:1011900081E090E002C0880F991F2A95E2F7842B26
:1011A0008C93AAE3B0E0EAE3F0E08081482F8B81E2
:1011B000282F30E081E090E0022E02C0880F991FB6
:1011C0000A94E2F7809584238C930AC1AAE3B0E0E5
:1011D000EAE3F0E08081482F8B81282F30E081E026
:1011E00090E0022E02C0880F991F0A94E2F7842B28
:1011F0008C93F6C01982F4C08C81282F30E03A8796
:10120000298789859A858130910589F129853A85D3
:101210002230310529F089859A85009799F03BC0E5
:10122000A8E3B0E0E8E3F0E08081482F8B81282F2D
:1012300030E081E090E002C0880F991F2A95E2F724
:10124000842B8C93A7E3B0E0E7E3F0E08081482FA4
:101250008B81282F30E081E090E0022E02C0880FC1
:10126000991F0A94E2F7809584238C93B9C0A7E371
:10127000B0E0E7E3F0E08081482F8B81282F30E059
:1012800081E090E0022E02C0880F991F0A94E2F7D5
:10129000842B8C93A5C01982A3C08C81282F30E0A9
:1012A00038872F838F8198858130910589F12F812F
:1012B00038852230310529F08F819885009799F083
:1012C0003BC0A5E3B0E0E5E3F0E08081482F8B81EF
:1012D000282F30E081E090E002C0880F991F2A9506
:1012E000E2F7842B8C93A4E3B0E0E4E3F0E08081A8
:1012F000482F8B81282F30E081E090E0022E02C041
:10130000880F991F0A94E2F7809584238C9368C014
:10131000A4E3B0E0E4E3F0E08081482F8B81282F44
:1013200030E081E090E0022E02C0880F991F0A94FD
:10133000E2F7842B8C9354C0198252C08C81282FE1
:1013400030E03E832D838D819E818130910589F12E
:101350002D813E812230310529F08D819E810097BB
:1013600099F03BC0A2E3B0E0E2E3F0E08081482FD7
:101370008B81282F30E081E090E002C0880F991F18
:101380002A95E2F7842B8C93A1E3B0E0E1E3F0E04F
:101390008081482F8B81282F30E081E090E0022E61
:1013A00002C0880F991F0A94E2F7809584238C93DA
:1013B00017C0A1E3B0E0E1E3F0E08081482F8B812A
:1013C000282F30E081E090E0022E02C0880F991FA4
:1013D0000A94E2F7842B8C9303C0198201C019820E
:1013E00089812E960FB6F894DEBF0FBECDBFCF9188
:1013F000DF910895DF93CF93CDB7DEB72E970FB669
:10140000F894DEBF0FBECDBF8A836B834C8381E02F
:1014100089838B81883008F00AC18C81813021F06A
:101420008C81882309F003C18A81282F30E03E8710
:101430002D878D859E858130910509F44FC02D85BE
:101440003E85223031052CF48D859E85009771F004
:10145000ECC02D853E852230310509F477C08D859D
:101460009E858330910509F4A9C0DFC08C81282FA7
:1014700030E03C872B878B859C850097D1F02B85AE
:101480003C852130310509F0D3C0ABE3B0E0EBE39C
:10149000F0E08081482F8B81282F30E081E090E0C0
:1014A000022E02C0880F991F0A94E2F7842B8C93B6
:1014B000BFC0ABE3B0E0EBE3F0E08081482F8B816D
:1014C000282F30E081E090E0022E02C0880F991FA3
:1014D0000A94E2F7809584238C93AAC08C81282FEC
:1014E00030E03A87298789859A850097D1F0298548
:1014F0003A852130310509F09BC0A8E3B0E0E8E36C
:10150000F0E08081482F8B81282F30E081E090E04F
:10151000022E02C0880F991F0A94E2F7842B8C9345
:1015200087C0A8E3B0E0E8E3F0E08081482F8B813A
:10153000282F30E081E090E0022E02C0880F991F32
:101540000A94E2F7809584238C9372C08C81282FB3
:1015500030E038872F838F8198850097D1F02F81D5
:1015600038852130310509F063C0A5E3B0E0E5E33B
:10157000F0E08081482F8B81282F30E081E090E0DF
:10158000022E02C0880F991F0A94E2F7842B8C93D5
:101590004FC0A5E3B0E0E5E3F0E08081482F8B8108
:1015A000282F30E081E090E0022E02C0880F991FC2
:1015B0000A94E2F7809584238C933AC08C81282F7B
:1015C00030E03E832D838D819E810097C9F02D816F
:1015D0003E812130310561F5A2E3B0E0E2E3F0E0C5
:1015E0008081482F8B81282F30E081E090E0022E0F
:1015F00002C0880F991F0A94E2F7842B8C9318C0BD
:10160000A2E3B0E0E2E3F0E08081482F8B81282F55
:1016100030E081E090E0022E02C0880F991F0A940A
:10162000E2F7809584238C9303C0198201C019824C
:1016300089812E960FB6F894DEBF0FBECDBFCF9135
:10164000DF910895DF93CF93CDB7DEB727970FB61D
:10165000F894DEBF0FBECDBF8A836B835D834C835E
:1016600019828B81883008F079C08C819D81009728
:1016700009F474C081E089838A81282F30E03F8398
:101680002E834E815F814130510559F18E819F81BA
:101690008230910534F42E813F812115310569F0A6
:1016A0005CC04E815F814230510579F18E819F810E
:1016B0008330910509F43DC050C0E9E3F0E080813A
:1016C000282F30E08B81882F90E0A90102C055952A
:1016D00047958A95E2F7CA018170EC81FD8180838C
:1016E0003DC0E6E3F0E08081282F30E08B81882F39
:1016F00090E0A90102C0559547958A95E2F7CA0185
:101700008170EC81FD81808329C0E3E3F0E080817A
:10171000282F30E08B81882F90E0A90102C05595D9
:1017200047958A95E2F7CA018170EC81FD8180833B
:1017300015C0E0E3F0E08081282F30E08B81882F16
:1017400090E0A90102C0559547958A95E2F7CA0134
:101750008170EC81FD81808301C019828981279687
:101760000FB6F894DEBF0FBECDBFCF91DF910895C5
:10177000DF93CF9300D000D00F92CDB7DEB78A832E
:101780006B8381E089838B81883008F071C08A8106
:10179000282F30E03D832C838C819D818130910501
:1017A00049F12C813D81223031052CF48C819D81C1
:1017B000009761F05BC02C813D812230310571F1D1
:1017C0008C819D8183309105E9F150C0ABE3B0E09D
:1017D000EBE3F0E08081482F8B81282F30E081E01F
:1017E00090E0022E02C0880F991F0A94E2F7842726
:1017F0008C933FC0A8E3B0E0E8E3F0E08081482F9D
:101800008B81282F30E081E090E0022E02C0880F0B
:10181000991F0A94E2F784278C932BC0A5E3B0E0CC
:10182000E5E3F0E08081482F8B81282F30E081E0D4
:1018300090E0022E02C0880F991F0A94E2F78427D5
:101840008C9317C0A2E3B0E0E2E3F0E08081482F80
:101850008B81282F30E081E090E0022E02C0880FBB
:10186000991F0A94E2F784278C9303C0198201C060
:10187000198289810F900F900F900F900F90CF9148
:10188000DF910895DF93CF93CDB7DEB72D970FB6D5
:10189000F894DEBF0FBECDBF8A836B8381E089835E
:1018A0008A81282F30E03D872C878C859D8581306B
:1018B0009105D1F12C853D85223031052CF48C85A4
:1018C0009D85009771F099C02C853D8522303105AA
:1018D00009F44DC08C859D858330910509F46AC05B
:1018E0008CC08B81282F30E03B872A878A859B8597
:1018F0008130910591F02A853B852230310529F010
:101900008A859B85009729F00DC0EBE3F0E08FEF0F
:101910008083EAE3F0E0108271C0EAE3F0E08FEF49
:1019200080836CC019826AC08B81282F30E0398790
:101930002887888599858130910591F0288539859A
:101940002230310529F088859985009729F00DC04E
:10195000E8E3F0E08FEF8083E7E3F0E010824EC031
:10196000E7E3F0E08FEF808349C0198247C08B81A5
:10197000282F30E03F832E838E819F818130910517
:1019800091F02E813F812230310529F08E819F8197
:10199000009729F00DC0E5E3F0E08FEF8083E4E3EA
:1019A000F0E010822BC0E4E3F0E08FEF808326C0EC
:1019B000198224C08B81282F30E03D832C838C81B9
:1019C0009D818130910591F02C813D81223031053E
:1019D00029F08C819D81009729F00DC0E2E3F0E0B1
:1019E0008FEF8083E1E3F0E0108208C0E1E3F0E0F4
:1019F0008FEF808303C0198201C0198289812D96DF
:101A00000FB6F894DEBF0FBECDBFCF91DF91089522
:101A1000DF93CF9300D000D00F92CDB7DEB78A838B
:101A20006B8381E089838A81282F30E03D832C837A
:101A30008C819D8181309105D1F02C813D812230B6
:101A400031052CF48C819D81009761F01FC02C81A1
:101A50003D812230310581F08C819D81833091055B
:101A600081F014C0EBE3F0E08B81808310C0E8E3E9
:101A7000F0E08B8180830BC0E5E3F0E08B81808315
:101A800006C0E2E3F0E08B81808301C01982898186
:101A90000F900F900F900F900F90CF91DF910895BE
:101AA000DF93CF9300D000D000D0CDB7DEB78A83CC
:101AB0007C836B8381E089838B819C810097E9F132
:101AC0008A81282F30E03E832D838D819E81813055
:101AD0009105E1F02D813E81223031052CF48D817C
:101AE0009E81009761F027C02D813E812230310513
:101AF000A1F08D819E8183309105B1F01CC0E9E396
:101B0000F0E08081EB81FC81808318C0E6E3F0E0A7
:101B10008081EB81FC81808311C0E3E3F0E0808170
:101B2000EB81FC8180830AC0E0E3F0E08081EB81FF
:101B3000FC81808303C0198201C0198289812696A5
:101B40000FB6F894DEBF0FBECDBFCF91DF910895E1
:101B5000DF93CF93CDB7DEB7EAE3F0E08EE080838A
:101B6000E7E3F0E08FE08083E4E3F0E08FEF808351
:101B7000E1E3F0E08EEF8083EBE3F0E01082E8E356
:101B8000F0E087EF8083E5E3F0E01082E2E3F0E04D
:101B900080E88083CF91DF910895DF93CF9300D0C9
:101BA00000D0CDB7DEB79A8389836B830E945D0E28
:101BB00089819A81892F992780650E94B10E898138
:101BC0000E94230F8B810E94230F0E947D0F0F9094
:101BD0000F900F900F90CF91DF910895DF93CF93E7
:101BE00000D000D00F92CDB7DEB79A8389837C8373
:101BF0006B830E945D0E8B819C81892F9927806564
:101C00000E94B10E8B810E94230F0E94870E8B8150
:101C10009C81892F992780650E94EB0E89819A818A
:101C20000E944E0F0E947D0F0F900F900F900F900B
:101C30000F90CF91DF910895DF93CF930F92CDB79F
:101C4000DEB78983E0E2F0E082E08083A1E2B0E0E9
:101C5000E1E2F0E080818D7F8C93A1E2B0E0E1E2EF
:101C6000F0E080818E7F8C938981882329F0E2E2E5
:101C7000F0E08981880F8083A6E5B0E0E6E5F0E03A
:101C8000808184608C930F90CF91DF910895DF93D2
:101C9000CF930F92CDB7DEB78983E2E2F0E089817E
:101CA000880F8083A6E5B0E0E6E5F0E080818460FF
:101CB0008C930F90CF91DF910895DF93CF930F9284
:101CC000CDB7DEB71982A6E5B0E0E6E5F0E08081A9
:101CD00080628C93A6E5B0E0E6E5F0E08081806864
:101CE0008C93E6E5F0E080818823DCF7E1E2F0E028
:101CF0008081882F90E08B7F90708830910511F063
:101D000081E0898389810F90CF91DF910895DF93DE
:101D1000CF930F92CDB7DEB71982A6E5B0E0E6E526
:101D2000F0E0808180628C93A6E5B0E0E6E5F0E02B
:101D3000808180688C93E6E5F0E080818823DCF781
:101D4000E1E2F0E08081882F90E08B7F907080311D
:101D5000910511F082E0898389810F90CF91DF9105
:101D60000895DF93CF9300D0CDB7DEB78A83198271
:101D7000E3E2F0E08A81880F8083A3E2B0E0E3E24F
:101D8000F0E080818E7F8C93A6E5B0E0E6E5F0E0A0
:101D900080818F7D8C93A6E5B0E0E6E5F0E0808160
:101DA00080688C9301C00000E6E5F0E08081882324
:101DB000D4F7E1E2F0E08081882F90E08B7F907093
:101DC0008831910511F083E0898389810F900F900C
:101DD000CF91DF910895DF93CF9300D0CDB7DEB7D9
:101DE0008A831982E3E2F0E08A81880F8083A3E28C
:101DF000B0E0E3E2F0E0808181608C93A6E5B0E0A2
:101E0000E6E5F0E080818F7D8C93A6E5B0E0E6E525
:101E1000F0E0808180688C93E6E5F0E080818823A3
:101E2000DCF7E1E2F0E08081882F90E08B7F90701A
:101E30008034910511F084E0898389810F900F909F
:101E4000CF91DF910895DF93CF9300D0CDB7DEB768
:101E50008A831982E3E2F0E08A818083A6E5B0E01C
:101E6000E6E5F0E0808180688C9301C00000E6E543
:101E7000F0E080818823D4F7E1E2F0E08081882FD0
:101E800090E08B7F90708832910511F085E0898316
:101E900089810F900F90CF91DF910895DF93CF93B9
:101EA00000D00F92CDB7DEB79B838A831982A6E557
:101EB000B0E0E6E5F0E0808180688C93E6E5F0E054
:101EC00080818823DCF7E1E2F0E08081882F90E0D8
:101ED0008B7F90708835910519F086E0898306C064
:101EE000E3E2F0E08081EA81FB81808389810F90C9
:101EF0000F900F90CF91DF910895DF93CF93CDB7DF
:101F0000DEB7A6E5B0E0E6E5F0E0808180618C9385
:101F1000A6E5B0E0E6E5F0E0808180688C93CF91A3
:101F2000DF910895DF93CF93CDB7DEB765970FB6F6
:101F3000F894DEBF0FBECDBF9D8B8C8B81E08A8B6A
:101F40001F868C899D89009709F4FDC0EC89FD8965
:101F50008FEF8083198AF2C08989882F90E0FC0175
:101F6000E65DFE4F20818989882F90E0FC01EA5DC3
:101F7000FE4F9081822F692F40E00E94FA09188A53
:101F8000C0C08889882F90E0FC01EE5CFE4F408144
:101F90008889882F90E0FC01E25DFE4F90819E01D0
:101FA0002D5E3F4F842F692FA9010E94220B8B8940
:101FB000882309F0A3C080E090E0A0EAB1E48B8719
:101FC0009C87AD87BE876B857C858D859E8520E04F
:101FD00030E04AEF54E40E941F02DC01CB018F8302
:101FE0009887A987BA876F81788589859A8520E047
:101FF00030E040E85FE30E94250488232CF481E070
:1020000090E09E838D833FC06F81788589859A8516
:1020100020E03FEF4FE757E40E94C50318164CF548
:102020006B857C858D859E8520E030E040E251E423
:102030000E941F02DC01CB01BC01CD010E944900BE
:10204000DC01CB019E838D830FC088EC90E09C83E4
:102050008B838B819C810197F1F79C838B838D818E
:102060009E8101979E838D838D819E81009769F764
:102070002BC06F81788589859A850E944900DC0193
:10208000CB019E838D838D819E819A8389838981F3
:102090009A810197F1F79A83898316C08889882FDE
:1020A00090E0FC01EE5CFE4F40818889882F90E033
:1020B000FC01E25DFE4F90819E012D5E3F4F842F1B
:1020C000692FA9010E94220B8B89882339F3898902
:1020D000482F50E08889282F30E0CA01880F991FC7
:1020E000880F991F820F931FFC01EA5CFE4F8081CD
:1020F000EC89FD89808381E08F8707C088898F5FA5
:10210000888B8889843008F43CCF8989882F90E0B7
:10211000FC01E65DFE4F20818989882F90E0FC015B
:10212000EA5DFE4F9081822F692F41E00E94FA09FB
:102130008F85882349F489898F5F898B89898430C9
:1021400008F40ACF01C01A8A8A8965960FB6F894F6
:10215000DEBF0FBECDBFCF91DF9108950F931F93C8
:10216000DF93CF93CDB7DEB7C456D0400FB6F89407
:10217000DEBF0FBECDBFFE01EF59FF4F80E090E004
:10218000ACE0B2E480839183A283B3838E01035ACF
:102190001F4FFE01EF59FF4F608171818281938152
:1021A00020E030E04AEF54E40E941F02DC01CB0142
:1021B000F80180839183A283B383FE01E35AFF4F2A
:1021C000608171818281938120E030E040E85FE3AB
:1021D0000E942504882344F4FE01E55AFF4F81E064
:1021E00090E09183808364C0FE01E35AFF4F6081D9
:1021F00071818281938120E03FEF4FE757E40E9495
:10220000C50318160CF043C0FE01EF59FF4F608163
:1022100071818281938120E030E040E251E40E94AC
:102220001F02DC01CB018E01055A1F4FBC01CD01FD
:102230000E944900DC01CB01F801918380831FC01B
:10224000FE01E75AFF4F88EC90E091838083FE0106
:10225000E75AFF4F808191810197F1F7FE01E75A1C
:10226000FF4F91838083DE01A55ABF4FFE01E55ADF
:10227000FF4F80819181019711969C938E93FE016F
:10228000E55AFF4F808191810097D1F627C08E01DA
:10229000055A1F4FFE01E35AFF4F60817181828111
:1022A00093810E944900DC01CB01F8019183808376
:1022B000DE01A95ABF4FFE01E55AFF4F808191818F
:1022C0008D939C93FE01E95AFF4F80819181019784
:1022D000F1F7FE01E95AFF4F9183808380E063E0CC
:1022E00040E00E94FA0980E062E040E00E94FA09C2
:1022F00080E20E943C1980E061E041E00E94FA091E
:10230000FE01ED5AFF4F80E090E0A0E8BFE380833C
:102310009183A283B3838E01015B1F4FFE01ED5AAF
:10232000FF4F60817181828193812BEA3AEA4AE210
:1023300050E40E941F02DC01CB01F80180839183ED
:10234000A283B383FE01E15BFF4F608171818281D3
:10235000938120E030E040E85FE30E942504882379
:1023600034F4FE01E25BFF4F81E08083E0C0FE01B8
:10237000E15BFF4F608171818281938120E030E0D9
:102380004FE753E40E94C50318160CF0C0C0FE01CD
:10239000ED5AFF4F608171818281938120E030E0AE
:1023A0004AE754E40E941903DC01CB01FE01E65B1D
:1023B000FF4F80839183A283B3838E010A5B1F4FFB
:1023C000FE01E65BFF4F608171818281938120E095
:1023D00030E04AEF54E40E941F02DC01CB01F80117
:1023E00080839183A283B383FE01EA5BFF4F608108
:1023F00071818281938120E030E040E85FE30E94B8
:102400002504882344F4FE01EC5BFF4F81E090E05B
:102410009183808364C0FE01EA5BFF4F608171811C
:102420008281938120E03FEF4FE757E40E94C5038C
:1024300018160CF043C0FE01E65BFF4F608171810E
:102440008281938120E030E040E251E40E941F024B
:10245000DC01CB018E010C5B1F4FBC01CD010E9442
:102460004900DC01CB01F801918380831FC0FE018C
:10247000EE5BFF4F88EC90E091838083FE01EE5B82
:10248000FF4F808191810197F1F7FE01EE5BFF4FD5
:1024900091838083DE01AC5BBF4FFE01EC5BFF4F9D
:1024A00080819181019711969C938E93FE01EC5B44
:1024B000FF4F808191810097D1F642C08E010C5B65
:1024C0001F4FFE01EA5BFF4F608171818281938122
:1024D0000E944900DC01CB01F80191838083DE0179
:1024E000A05CBF4FFE01EC5BFF4F80819181119694
:1024F0009C938E93FE01E05CFF4F80819181019758
:10250000F1F7FE01E05CFF4F9183808319C08E01DB
:10251000025B1F4FFE01E15BFF4F60817181828191
:1025200093810E944900DC01CB01F8018083FE0108
:10253000E25BFF4F80818FAF8FAD8A95F1F78FAF50
:1025400080E061E040E00E94FA0988E20E946116A2
:1025500080E090E0A0E2B2E48BAF9CAFADAFBEAF45
:102560006BAD7CAD8DAD9EAD2BEA3AEA4AE250E40C
:102570000E941F02DC01CB018FAB98AFA9AFBAAFAD
:102580006FA978AD89AD9AAD20E030E040E85FE317
:102590000E94250488231CF481E08EAB91C06FA9B2
:1025A00078AD89AD9AAD20E030E04FE753E40E946A
:1025B000C50318160CF07BC06BAD7CAD8DAD9EAD28
:1025C00020E030E04AE754E40E941903DC01CB012B
:1025D0008AAB9BABACABBDAB6AA97BA98CA99DA90F
:1025E00020E030E04AEF54E40E941F02DC01CB01FE
:1025F0008EA79FA7A8ABB9AB6EA57FA588A999A9FF
:1026000020E030E040E85FE30E94250488232CF4BA
:1026100081E090E09DA78CA73FC06EA57FA588A90B
:1026200099A920E03FEF4FE757E40E94C503181631
:102630004CF56AA97BA98CA99DA920E030E040E275
:1026400051E40E941F02DC01CB01BC01CD010E94BC
:102650004900DC01CB019DA78CA70FC088EC90E05E
:102660009BA78AA78AA59BA50197F1F79BA78AA795
:102670008CA59DA501979DA78CA78CA59DA50097CE
:1026800069F724C06EA57FA588A999A90E94490071
:10269000DC01CB019DA78CA78CA59DA599A788A738
:1026A00088A599A50197F1F799A788A70FC06FA9E9
:1026B00078AD89AD9AAD0E944900DC01CB018EABAB
:1026C0008EA98FA38FA18A95F1F78FA38FE00E9427
:1026D000611680E090E0A0E2B2E48BA39CA3ADA3DE
:1026E000BEA36BA17CA18DA19EA12BEA3AEA4AE28E
:1026F00050E40E941F02DC01CB018F8F98A3A9A395
:10270000BAA36F8D78A189A19AA120E030E040E8BA
:102710005FE30E94250488231CF481E08E8F91C022
:102720006F8D78A189A19AA120E030E04FE753E4B2
:102730000E94C50318160CF07BC06BA17CA18DA173
:102740009EA120E030E04AE754E40E941903DC0136
:10275000CB018A8F9B8FAC8FBD8F6A8D7B8D8C8DCB
:102760009D8D20E030E04AEF54E40E941F02DC011E
:10277000CB018E8B9F8BA88FB98F6E897F89888DB7
:10278000998D20E030E040E85FE30E942504882333
:102790002CF481E090E09D8B8C8B3FC06E897F890B
:1027A000888D998D20E03FEF4FE757E40E94C503E5
:1027B00018164CF56A8D7B8D8C8D9D8D20E030E058
:1027C00040E251E40E941F02DC01CB01BC01CD01BB
:1027D0000E944900DC01CB019D8B8C8B0FC088ECE3
:1027E00090E09B8B8A8B8A899B890197F1F79B8B61
:1027F0008A8B8C899D8901979D8B8C8B8C899D8977
:10280000009769F724C06E897F89888D998D0E9411
:102810004900DC01CB019D8B8C8B8C899D89998B28
:10282000888B888999890197F1F7998B888B0FC0DC
:102830006F8D78A189A19AA10E944900DC01CB018A
:102840008E8F8E8D8F878F858A95F1F78F8781E0A8
:102850000E94611680E090E0A0E0B0E48B879C8746
:10286000AD87BE876B857C858D859E8520E030E0B9
:102870004AEF54E40E941F02DC01CB018F8398874A
:10288000A987BA876F81788589859A8520E030E0AD
:1028900040E85FE30E94250488232CF481E090E067
:1028A0009E838D833FC06F81788589859A8520E0DE
:1028B0003FEF4FE757E40E94C50318164CF56B85B0
:1028C0007C858D859E8520E030E040E251E40E94C9
:1028D0001F02DC01CB01BC01CD010E944900DC01DB
:1028E000CB019E838D830FC088EC90E09C838B830B
:1028F0008B819C810197F1F79C838B838D819E81D5
:1029000001979E838D838D819E81009769F714C006
:102910006F81788589859A850E944900DC01CB0109
:102920009E838D838D819E819A83898389819A81FB
:102930000197F1F79A83898386E00E946116CC594A
:10294000DF4F0FB6F894DEBF0FBECDBFCF91DF9142
:102950001F910F910895DF93CF93CDB7DEB7E19725
:102960000FB6F894DEBF0FBECDBF89AB80E063E049
:1029700041E00E94FA0980E062E040E00E94FA092A
:1029800089A90E943C1980E061E041E00E94FA09B7
:1029900080E090E0A0E8BFE38DA79EA7AFA7B8AB0B
:1029A0006DA57EA58FA598A92BEA3AEA4AE250E4E4
:1029B0000E941F02DC01CB0189A79AA7ABA7BCA785
:1029C00069A57AA58BA59CA520E030E040E85FE3EF
:1029D0000E94250488231CF481E088A791C069A582
:1029E0007AA58BA59CA520E030E04FE753E40E9438
:1029F000C50318160CF07BC06DA57EA58FA598A900
:102A000020E030E04AE754E40E941903DC01CB01E6
:102A10008CA39DA3AEA3BFA36CA17DA18EA19FA1FA
:102A200020E030E04AEF54E40E941F02DC01CB01B9
:102A300088A399A3AAA3BBA368A179A18AA19BA1FA
:102A400020E030E040E85FE30E94250488232CF476
:102A500081E090E09F8F8E8F3FC068A179A18AA10D
:102A60009BA120E03FEF4FE757E40E94C5031816F3
:102A70004CF56CA17DA18EA19FA120E030E040E249
:102A800051E40E941F02DC01CB01BC01CD010E9478
:102A90004900DC01CB019F8F8E8F0FC088EC90E046
:102AA0009D8F8C8F8C8D9D8D0197F1F79D8F8C8FD5
:102AB0008E8D9F8D01979F8F8E8F8E8D9F8D00970E
:102AC00069F724C068A179A18AA19BA10E9449004D
:102AD000DC01CB019F8F8E8F8E8D9F8D9B8F8A8F78
:102AE0008A8D9B8D0197F1F79B8F8A8F0FC069A507
:102AF0007AA58BA59CA50E944900DC01CB0188A783
:102B000088A5898F898D8A95F1F7898F80E061E0AA
:102B100040E00E94FA0989A98295807F0E943C19B1
:102B200080E061E041E00E94FA0980E090E0A0E8E6
:102B3000BFE38D8B9E8BAF8BB88F6D897E898F891C
:102B4000988D2BEA3AEA4AE250E40E941F02DC0127
:102B5000CB01898B9A8BAB8BBC8B69897A898B89EA
:102B60009C8920E030E040E85FE30E942504882350
:102B70001CF481E0888B91C069897A898B899C8952
:102B800020E030E04FE753E40E94C50318160CF034
:102B90007BC06D897E898F89988D20E030E04AE77F
:102BA00054E40E941903DC01CB018C879D87AE871A
:102BB000BF876C857D858E859F8520E030E04AEF5C
:102BC00054E40E941F02DC01CB0188879987AA8701
:102BD000BB87688579858A859B8520E030E040E861
:102BE0005FE30E94250488232CF481E090E09F831A
:102BF0008E833FC0688579858A859B8520E03FEF7D
:102C00004FE757E40E94C50318164CF56C857D8587
:102C10008E859F8520E030E040E251E40E941F0253
:102C2000DC01CB01BC01CD010E944900DC01CB01DC
:102C30009F838E830FC088EC90E09D838C838C8172
:102C40009D810197F1F79D838C838E819F810197F0
:102C50009F838E838E819F81009769F724C068854A
:102C600079858A859B850E944900DC01CB019F8381
:102C70008E838E819F819B838A838A819B8101972A
:102C8000F1F79B838A830FC069897A898B899C8934
:102C90000E944900DC01CB01888B88898983898166
:102CA0008A95F1F7898380E061E040E00E94FA09AB
:102CB000E1960FB6F894DEBF0FBECDBFCF91DF9186
:102CC0000895DF93CF93CDB7DEB7E1970FB6F894B1
:102CD000DEBF0FBECDBF89AB80E063E040E00E9465
:102CE000FA0980E062E040E00E94FA0989A90E94A6
:102CF0003C1980E061E041E00E94FA0980E090E048
:102D0000A0E8BFE38DA79EA7AFA7B8AB6DA57EA532
:102D10008FA598A92BEA3AEA4AE250E40E941F02E2
:102D2000DC01CB0189A79AA7ABA7BCA769A57AA5A7
:102D30008BA59CA520E030E040E85FE30E942504DD
:102D400088231CF481E088A791C069A57AA58BA58A
:102D50009CA520E030E04FE753E40E94C50318161D
:102D60000CF07BC06DA57EA58FA598A920E030E072
:102D70004AE754E40E941903DC01CB018CA39DA314
:102D8000AEA3BFA36CA17DA18EA19FA120E030E0E6
:102D90004AEF54E40E941F02DC01CB0188A399A3EF
:102DA000AAA3BBA368A179A18AA19BA120E030E0DE
:102DB00040E85FE30E94250488232CF481E090E042
:102DC0009F8F8E8F3FC068A179A18AA19BA120E02F
:102DD0003FEF4FE757E40E94C50318164CF56CA16E
:102DE0007DA18EA19FA120E030E040E251E40E944D
:102DF0001F02DC01CB01BC01CD010E944900DC01B6
:102E0000CB019F8F8E8F0FC088EC90E09D8F8C8FB1
:102E10008C8D9D8D0197F1F79D8F8C8F8E8D9F8D61
:102E200001979F8F8E8F8E8D9F8D009769F724C09D
:102E300068A179A18AA19BA10E944900DC01CB0174
:102E40009F8F8E8F8E8D9F8D9B8F8A8F8A8D9B8D6E
:102E50000197F1F79B8F8A8F0FC069A57AA58BA583
:102E60009CA50E944900DC01CB0188A788A5898F19
:102E7000898D8A95F1F7898F80E061E040E00E94BA
:102E8000FA0989A98295807F0E943C1980E061E05F
:102E900041E00E94FA0980E090E0A0E8BFE38D8B5A
:102EA0009E8BAF8BB88F6D897E898F89988D2BEA29
:102EB0003AEA4AE250E40E941F02DC01CB01898B0E
:102EC0009A8BAB8BBC8B69897A898B899C8920E032
:102ED00030E040E85FE30E94250488231CF481E091
:102EE000888B91C069897A898B899C8920E030E040
:102EF0004FE753E40E94C50318160CF07BC06D89A0
:102F00007E898F89988D20E030E04AE754E40E9462
:102F10001903DC01CB018C879D87AE87BF876C8549
:102F20007D858E859F8520E030E04AEF54E40E9445
:102F30001F02DC01CB0188879987AA87BB87688538
:102F400079858A859B8520E030E040E85FE30E9438
:102F5000250488232CF481E090E09F838E833FC07A
:102F6000688579858A859B8520E03FEF4FE757E4A8
:102F70000E94C50318164CF56C857D858E859F854E
:102F800020E030E040E251E40E941F02DC01CB016E
:102F9000BC01CD010E944900DC01CB019F838E83DF
:102FA0000FC088EC90E09D838C838C819D8101977C
:102FB000F1F79D838C838E819F8101979F838E8300
:102FC0008E819F81009769F724C0688579858A85FD
:102FD0009B850E944900DC01CB019F838E838E81FB
:102FE0009F819B838A838A819B810197F1F79B83D1
:102FF0008A830FC069897A898B899C890E944900DC
:10300000DC01CB01888B8889898389818A95F1F7D6
:10301000898380E061E040E00E94FA09E1960FB602
:10302000F894DEBF0FBECDBFCF91DF910895DF933F
:10303000CF93CDB7DEB761970FB6F894DEBF0FBE62
:10304000CDBF998B888B1F8680C08F85282F30E05D
:1030500088899989FC01E20FF31F80810E94AB14DB
:1030600080E090E0A0E0B0E48B879C87AD87BE87CE
:103070006B857C858D859E8520E030E04AEF54E4A9
:103080000E941F02DC01CB018F839887A987BA8732
:103090006F81788589859A8520E030E040E85FE39C
:1030A0000E94250488232CF481E090E09E838D8388
:1030B0003FC06F81788589859A8520E03FEF4FE793
:1030C00057E40E94C50318164CF56B857C858D85E9
:1030D0009E8520E030E040E251E40E941F02DC01C6
:1030E000CB01BC01CD010E944900DC01CB019E83D4
:1030F0008D830FC088EC90E09C838B838B819C81B7
:103100000197F1F79C838B838D819E8101979E832C
:103110008D838D819E81009769F714C06F817885BA
:1031200089859A850E944900DC01CB019E838D83AD
:103130008D819E819A83898389819A810197F1F794
:103140009A8389838F858F5F8F878F85282F30E0C3
:1031500088899989FC01E20FF31F8081882309F097
:1031600074CF61960FB6F894DEBF0FBECDBFCF917E
:10317000DF910895DF93CF93CDB7DEB72E970FB6CB
:10318000F894DEBF0FBECDBF8E871C821B828E855A
:10319000882F90E09A8389830FC08B819C81019650
:1031A0009C838B8389819A812AE030E0B9010E9457
:1031B000441FCB019A83898389819A81009769F79B
:1031C00018861F822BC08E859AE0692F0E94381FB7
:1031D000892F882F90E09E838D838E859AE0692FBA
:1031E0000E94381F8E878F8198859C01209530958D
:1031F0008B819C81280F391F8D81482F405DCE0126
:103200000996FC01E20FF31F40838D81805D0E94CF
:10321000AB148F819885019698878F832F8138858D
:103220008B819C812817390774F22E960FB6F8947B
:10323000DEBF0FBECDBFCF91DF910895DF93CF9357
:1032400000D00F92CDB7DEB78A836B838A81882343
:1032500019F48B81898306C08A81813019F48B81AE
:10326000805C8983898180580E9461160F900F903D
:103270000F90CF91DF910895DF93CF930F92CDB749
:10328000DEB789838981882334F482E067E041E0F6
:103290000E94FA0905C082E067E040E00E94FA0956
:1032A00089818295869586958370882F90E08170BC
:1032B0009070882331F082E066E041E00E94FA09D4
:1032C00005C082E066E040E00E94FA0989818295AB
:1032D00086958770882F90E081709070882331F0F8
:1032E00082E065E041E00E94FA0905C082E065E005
:1032F00040E00E94FA09898182958F70882F90E0C2
:1033000081709070882331F082E064E041E00E9497
:10331000FA0905C082E064E040E00E94FA090F90DB
:10332000CF91DF910895DF93CF93CDB7DEB7A3E5BB
:10333000B0E0E3E5F0E0808180648C93A3E5B0E049
:10334000E3E5F0E0808188608C93A3E5B0E0E3E5FD
:10335000F0E080818E7F8C93A3E5B0E0E3E5F0E0C0
:10336000808182608C93A3E5B0E0E3E5F0E08081AA
:103370008B7F8C93CF91DF910895DF93CF93CDB75F
:10338000DEB7A3E5B0E0E3E5F0E080818F7D8C93CC
:10339000A3E5B0E0E3E5F0E080818F7E8C93CF91F0
:1033A000DF910895DF93CF93CDB7DEB7A3E5B0E00B
:1033B000E3E5F0E0808180628C93A3E5B0E0E3E593
:1033C000F0E080818F7E8C93CF91DF910895DF9321
:1033D000CF93CDB7DEB7AFE4B0E0EFE4F0E08081AB
:1033E0008E7F8C93AFE4B0E0EFE4F0E08081826008
:1033F0008C93AEE4B0E0EEE4F0E0808180618C93E9
:10340000AEE4B0E0EEE4F0E0808188608C93AFE45D
:10341000B0E0EFE4F0E0808180688C93AFE4B0E04E
:10342000EFE4F0E080818F7B8C93AEE4B0E0EEE4DB
:10343000F0E080818E7F8C93AEE4B0E0EEE4F0E0CB
:10344000808182608C93AEE4B0E0EEE4F0E08081B5
:103450008B7F8C93CF91DF910895DF93CF9300D032
:10346000CDB7DEB79A838983ECE4F0E089819A8155
:10347000918380830F900F90CF91DF910895DF9318
:10348000CF93CDB7DEB7ECE4F0E080819181CF91AE
:10349000DF910895DF93CF930F92CDB7DEB7898385
:1034A000ECE5F0E0898180830F90CF91DF91089562
:1034B000DF93CF9300D0CDB7DEB79A838983EAE458
:1034C000F0E089819A81918380830F900F90CF9152
:1034D000DF910895DF93CF9300D0CDB7DEB79A8305
:1034E0008983E6E4F0E089819A81918380830F905B
:1034F0000F90CF91DF910895DF93CF9300D00F927B
:10350000CDB7DEB79B838A8381E089838A819B81E3
:10351000009739F08A819B819093530180935201E7
:1035200001C0198289810F900F900F90CF91DF9188
:1035300008951F920F920FB60F9211242F933F936D
:103540004F935F936F937F938F939F93AF93BF93AB
:10355000EF93FF93DF93CF93CDB7DEB78091520106
:1035600090915301009729F0E0915201F09153019D
:103570000995CF91DF91FF91EF91BF91AF919F910D
:103580008F917F916F915F914F913F912F910F900C
:103590000FBE0F901F901895DF93CF93CDB7DEB776
:1035A000E0E4F0E086E88083AAE2B0E0EAE2F0E05E
:1035B00080818F778C93AAE2B0E0EAE2F0E080812C
:1035C0008F7B8C93AAE2B0E0EAE2F0E080818F7D0D
:1035D0008C93AAE2B0E0EAE2F0E0808180618C9313
:1035E000AAE2B0E0EAE2F0E0808188608C93E9E250
:1035F000F0E083E38083CF91DF910895DF93CF9351
:103600000F92CDB7DEB7898301C00000EBE2F0E096
:103610008081829586958770882F90E08170907068
:10362000009799F3ECE2F0E0898180830F90CF91CD
:10363000DF910895DF93CF9300D00F92CDB7DEB71F
:103640009B838A8319820EC08981282F30E08A816A
:103650009B81FC01E20FF31F80810E94FE1A898189
:103660008F5F89838981282F30E08A819B81FC01CB
:10367000E20FF31F8081882339F780E00E94FE1A51
:103680000F900F900F90CF91DF910895DF93CF931C
:103690000F92CDB7DEB701C00000EBE2F0E0808111
:1036A0008823D4F7ECE2F0E08081898389810F9050
:1036B000CF91DF910895DF93CF9300D000D0CDB7A5
:1036C000DEB79A8389837C836B83AAE2B0E0EAE267
:1036D000F0E0808180688C938B819C81909357016E
:1036E0008093560189819A8190935501809354016A
:1036F0000F900F900F900F90CF91DF9108951F9230
:103700000F920FB60F9211242F933F934F935F9315
:103710006F937F938F939F93AF93BF93EF93FF9399
:10372000DF93CF93CDB7DEB7A0915601B09157018B
:10373000ECE2F0E080818C938091540190915501EE
:10374000009729F0E0915401F09155010995CF912E
:10375000DF91FF91EF91BF91AF919F918F917F91F9
:103760006F915F914F913F912F910F900FBE0F90EE
:103770001F901895DF93CF930F92CDB7DEB78AE0F5
:103780008983AFE5B0E0EFE5F0E0808180688C935D
:103790000E94DA1B89810E94FE1E0E94F41B0E9477
:1037A000C11C0E94F21C809158018130E1F70E94F7
:1037B000891CF9CFDF93CF93CDB7DEB70E94A80D58
:1037C0000E94AE100E944F0680E00E941C0E0E94D4
:1037D00093190E94E71980E29EE40E946A1A0E94EF
:1037E000CC1ACF91DF910895DF93CF93CDB7DEB799
:1037F00080E060E00E941E1980E690E00E941718A9
:1038000081E060E00E941E1988E690E00E9417188F
:10381000CF91DF910895DF93CF93CDB7DEB780913D
:103820005B018A3069F480915901882F90E0FC0196
:10383000E45AFE4F1082109259010E94321C0FC0B0
:1038400080915901882F90E020915B01FC01E45A9E
:10385000FE4F2083809159018F5F80935901CF9152
:10386000DF910895DF93CF93CDB7DEB78CE591E07C
:1038700022E730E0B9010E94A91F009751F40E948D
:10388000BD1981E063E041E00E94FA0910925801FD
:103890003DC08CE591E020E830E0B9010E94A91F0D
:1038A000009751F40E94BD1981E063E040E00E945E
:1038B000FA09109258012AC08CE591E02FE830E017
:1038C000B9010E94A91F009731F481E0809358014B
:1038D0000E94D2191BC08CE591E02DE930E0B901BE
:1038E0000E94A91F009729F48EEE92E00E94581AB8
:1038F0000DC08CE591E02BEA30E0B9010E94A91FD0
:10390000009721F484EC99E00E94581ACF91DF913E
:103910000895DF93CF9300D000D0CDB7DEB71C82DF
:103920001B821A8219829E012D5F3F4F87E0B901E9
:103930000E948E062B813C8180E094E0AC01421B0A
:10394000530BCA019C01220F331FC9019695982F72
:10395000882797958795821B930B840F951F892F36
:103960009927869586958F5F90409A838983898170
:103970000E944A1A0F900F900F900F90CF91DF91F5
:103980000895DF93CF9300D0CDB7DEB7198284E6D8
:103990008A8384E891E060E070E04FE050E00E94AC
:1039A000A21FCE0102960E94920F8A818F3FC9F317
:1039B0008A818B3281F08981882F90E02A81FC01F5
:1039C000EC57FE4F20838A81805D0E94AB14898171
:1039D0008F5F8983E6CF0E94F21C0F900F90CF91EA
:1039E000DF910895DF93CF93CDB7DEB7AC970FB6D5
:1039F000F894DEBF0FBECDBF1CA61BA6B4C045E722
:103A000051E08BA5282F30E0C901880F991F880F3E
:103A1000991F820F931F9A01280F391F84E891E0A4
:103A2000B9010E94A91F009709F09AC081E00E9485
:103A3000611680E060E00E941E198AEB90E00E940F
:103A4000171880E090E0AAEFB4E48FA398A7A9A785
:103A5000BAA76FA178A589A59AA520E030E04AEF22
:103A600054E40E941F02DC01CB018BA39CA3ADA3F5
:103A7000BEA36BA17CA18DA19EA120E030E040E817
:103A80005FE30E94250488232CF481E090E09AA350
:103A900089A33FC06BA17CA18DA19EA120E03FEF37
:103AA0004FE757E40E94C50318164CF56FA178A59F
:103AB00089A59AA520E030E040E251E40E941F026F
:103AC000DC01CB01BC01CD010E944900DC01CB012E
:103AD0009AA389A30FC088EC90E098A38F8F8F8D55
:103AE00098A10197F1F798A38F8F89A19AA10197C7
:103AF0009AA389A389A19AA1009769F714C06BA121
:103B00007CA18DA19EA10E944900DC01CB019AA35A
:103B100089A389A19AA19E8F8D8F8D8D9E8D0197EE
:103B2000F1F79E8F8D8F81E00E94611680E060E04A
:103B30000E941E198AEC90E00E94171881E060E054
:103B40000E941E1983ED90E00E9417188BE09CE103
:103B50002BE531E0B9010E945B1B81E08CA707C017
:103B60008BA58F5F8BA78BA5833008F448CF8CA5DE
:103B7000882309F09DC080915A01833008F098C0D5
:103B800080915A018F5F80935A0181E00E946116F3
:103B900080E060E00E941E1985EE90E00E941718F8
:103BA00081E060E00E941E1984EF90E00E941718E7
:103BB00080E090E8ABEBB4E4898F9A8FAB8FBC8F39
:103BC000698D7A8D8B8D9C8D20E030E04AEF54E436
:103BD0000E941F02DC01CB018D8B9E8BAF8BB88FB7
:103BE0006D897E898F89988D20E030E040E85FE321
:103BF0000E94250488232CF481E090E09C8B8B8B21
:103C00003FC06D897E898F89988D20E03FEF4FE717
:103C100057E40E94C50318164CF5698D7A8D8B8D7B
:103C20009C8D20E030E040E251E40E941F02DC0164
:103C3000CB01BC01CD010E944900DC01CB019C8B72
:103C40008B8B0FC088EC90E09A8B898B89899A893D
:103C50000197F1F79A8B898B8B899C8901979C8BB3
:103C60008B8B8B899C89009769F714C06D897E893D
:103C70008F89988D0E944900DC01CB019C8B8B8B36
:103C80008B899C89988B8F878F8598890197F1F70D
:103C9000988B8F8781E00E94611680E060E00E942F
:103CA0001E1988E690E00E9417180E94C11C9DC052
:103CB0008CA5882309F099C080915A01833008F4BB
:103CC00094C010925A0181E00E94611680E060E089
:103CD0000E941E1981E091E00E94171881E060E0C7
:103CE0000E941E198BE091E00E94171880E090E47A
:103CF000ACE9B5E48B879C87AD87BE876B857C85F7
:103D00008D859E8520E030E04AEF54E40E941F023A
:103D1000DC01CB018F839887A987BA876F8178856B
:103D200089859A8520E030E040E85FE30E94250421
:103D300088232CF481E090E09E838D833FC06F81C7
:103D4000788589859A8520E03FEF4FE757E40E9408
:103D5000C50318164CF56B857C858D859E8520E006
:103D600030E040E251E40E941F02DC01CB01BC01C3
:103D7000CD010E944900DC01CB019E838D830FC0E1
:103D800088EC90E09C838B838B819C810197F1F779
:103D90009C838B838D819E8101979E838D838D81F2
:103DA0009E81009769F714C06F81788589859A850F
:103DB0000E944900DC01CB019E838D838D819E8111
:103DC0009A83898389819A810197F1F79A838983FC
:103DD00081E00E94611680E060E00E941E1988E682
:103DE00090E00E9417180E94C11CAC960FB6F89480
:103DF000DEBF0FBECDBFCF91DF910895DF93CF938C
:103E000000D00F92CDB7DEB78B831A8228C01982FB
:103E100020C045E751E08A81282F30E0C901880F92
:103E2000991F880F991F280F391F8981882F90E0CB
:103E3000820F931F480F591F8B81282F30E08B81F1
:103E40008F5F8B83CA01B9010E94EE0D89818F5F5C
:103E5000898389818430E8F28A818F5F8A838A81AD
:103E60008330A8F20F900F900F90CF91DF910895BB
:103E7000991B79E004C0991F961708F0961B881FBC
:103E80007A95C9F78095089597FB092E07260AD0E1
:103E900077FD04D00CD006D000201AF470956195FF
:103EA0007F4F0895F6F7909581959F4F0895AA1B2F
:103EB000BB1B51E107C0AA1FBB1FA617B70710F015
:103EC000A61BB70B881F991F5A95A9F78095909547
:103ED000BC01CD0108952F923F924F925F926F9255
:103EE0007F928F929F92AF92BF92CF92DF92EF928A
:103EF000FF920F931F93CF93DF93CDB7DEB7CA1B0B
:103F0000DB0B0FB6F894DEBF0FBECDBF09942A8835
:103F1000398848885F846E847D848C849B84AA84DD
:103F2000B984C884DF80EE80FD800C811B81AA816A
:103F3000B981CE0FD11D0FB6F894DEBF0FBECDBF35
:103F4000ED010895DC0101C06D9341505040E0F750
:103F50000895FB01DC018D91019080190110D9F3C6
:083F6000990B0895F894FFCFBE
:103F680057656C636F6D6500456E746572204944D2
:103F78003A007475726E206F6E206C696768740001
:103F88007475726E206F6666206C6967687400636A
:103F98006F6E74726F6C206C69676874006F7065FF
:103FA8006E2074686520646F6F7200636C6F736550
:103FB8002074686520646F6F72005375636573734E
:103FC8002072656769737465720057616974206649
:103FD8006F7200766F69636520636F6D6D616E64E3
:103FE800732E2E2E0057726F6E6720506173737791
:103FF8006F72640054727920416761696E2E2E2EAB
:104008000054727920616761696E00616674657237
:104018002035207365636F6E64732E2E2E000000AA
:10402800000000000000000102070101010304056F
:104038000607010101010102032B04050600070818
:0640480009000000000069
:00000001FF
